:100000000C9473000C9490000C9490000C9490004D
:100010000C9490000C9490000C9490000C94900020
:100020000C94EB000C9490000C9490000C949000B5
:100030000C9490000C9490000C9490000C94900000
:100040000C9490000C9490000C9490000C949000F0
:100050000C949000A901A701AF01B10165016701EE
:1000600069016B016D016F01710173017501AF01D0
:10007000AF01AF01AD01AF01AF01AF017701790170
:100080007D01AF01830185018701890165018F0130
:10009000AF019301AF01AF01B1019701AF01AF0112
:1000A00099019B019F01AF01AF01AF01A301A50120
:1000B000AF01AF01AF01AF01AB01AF01AF017B01F8
:1000C0007F018101AF01AF01AF018B018D01910172
:1000D000AF01AF01AF01AF019501AF01AF01AF01BA
:1000E000AF019D01A10111241FBECFE5D4E0DEBF09
:1000F000CDBF10E0A0E6B0E0E2EAFCE002C005906F
:100100000D92A239B107D9F720E0A2E9B0E001C011
:100110001D92A73AB207E1F70E94B6020C944F066F
:100120000C94000087708093950008954091A4007E
:1001300050E014161506B4F42091940080E090E08D
:100140003FEF213029F4FC01E856FF4F308306C011
:10015000211104C0FC01E856FF4F1082019684175C
:10016000950779F71092950008958091A40088234F
:1001700089F120E030E061E070E08091940081300E
:1001800089F4E0919600F09197009081AB01022EE6
:1001900002C0440F551F0A94E2F7842F80958923EB
:1001A000808310C081110EC0E0919600F0919700FD
:1001B0004081CB01022E02C0880F991F0A94E2F7FA
:1001C000842B80832F5F3F4F8091A40090E02817FD
:1001D00039079CF208951F920F920FB60F921124C7
:1001E0002F933F934F935F936F937F938F939F933F
:1001F000AF93BF93EF93FF93809192009091930000
:1002000001966091A40070E00E94370390939300E0
:10021000809392000E94B500A091A000B091A1002F
:10022000E0919200F0919300E856FF4F80818C930B
:1002300080919400813099F4409192005091930004
:10024000E0919600F0919700208181E090E002C05B
:10025000880F991F4A95E2F7822B808316C081117F
:1002600014C04091920050919300E0919600F0915B
:100270009700208181E090E002C0880F991F4A9585
:10028000E2F7809590958223808380E69AEE9DBD6B
:100290008CBDFF91EF91BF91AF919F918F917F9115
:1002A0006F915F914F913F912F910F900FBE0F90E3
:1002B0001F90189590E0FC01BD97E934F10508F016
:1002C0004EC0E65DFF4F0C944B0386E008958BE52E
:1002D00008958FE4089586E608958DE608958DE7E4
:1002E000089587E008958FE708958FE6089587E7DA
:1002F00008958FE708958CE7089589E3089588E5C8
:1003000008958EE5089589E7089581E708958DE3BE
:10031000089586E7089584E7089584E008958FE0BE
:1003200008958EE0089588E308958CE5089583E7A5
:1003300008958DE6089581E3089588E708958EE392
:1003400008958CE1089586E608958BE5089580E888
:10035000089580E4089588E0089588E4089580E091
:1003600008958FE308959F92AF92BF92CF92DF924C
:10037000EF92FF920F931F93CF93DF933091A400DE
:10038000E32EF12C1E141F049CF5FC012081222376
:1003900079F100919500409194004170942E5C0198
:1003A000FFEFAF1ABF0A6C01C30ED11C10E0015061
:1003B0001109081B190B05C0F50121915F012223CA
:1003C000B9F0C8018A0D9B1DB7010E943703EC01EB
:1003D000992029F0822F0E945A01809503C0822F14
:1003E0000E945A01C856DF4F8883AC14BD0421F720
:1003F000DF91CF911F910F91FF90EF90DF90CF9001
:10040000BF90AF909F9008950F931F93CF93DF936A
:10041000CDB7DEB729970FB6F894DEBF0FBECDBFBC
:100420009F938F9380E690E09F938F938E010F5F51
:100430001F4F1F930F930E946503C8010E94B301D1
:100440000F900F900F900F900F900F9029960FB66E
:10045000F894DEBF0FBECDBFDF91CF911F910F91FA
:1004600008958EB581608EBD89B7846089BF80E6AE
:100470009AEE9DBD8CBD0895EF92FF920F931F934E
:1004800099E3899F912D11249695792F770F770FF6
:10049000770F970F891B8093A4006170609394007D
:1004A0005093A6004093A5003093A1002093A00094
:1004B0001093A3000093A200F0929700E0929600A0
:1004C0008FEFFA0180838091A4008823C9F080E037
:1004D00090E061E070E0E091A200F091A300408123
:1004E0009B01082E02C0220F331F0A94E2F7242B2F
:1004F000208301962091A40030E0821793075CF3DB
:100500000E9496000E9431021F910F91FF90EF9080
:100510000895CF93DF9390919400D92FD17090FFDD
:1005200008C0E0919500F0E0E856FF4FC081C0950B
:1005300006C0E0919500F0E0E856FF4FC0818111C0
:1005400006C08EE20E945A0180958C2304C08EE280
:100550000E945A018C2BE0919500F0E0D11180951A
:10056000E856FF4F8083DF91CF9108950F2EF5E37A
:10057000EF2EF12CF02D04E310E022E330E041E314
:1005800050E061E086E00E943C02789480E290E0D6
:100590000E9404020E94960089E690E00E94B30146
:1005A00082E00E94920081E00E9489022FEF83ED99
:1005B00090E3215080409040E1F700C0000080E0CF
:1005C0000E9489022FEF83ED90E3215080409040FC
:1005D000E1F700C000000E9496008FE690E00E94C4
:1005E000B3012FEF81E19AE7215080409040E1F77D
:1005F00000C000000E94960086E790E00E94B301D0
:100600002FEF81E19AE7215080409040E1F700C050
:1006100000000E9496008DE790E00E94B3012FEF4A
:1006200081E19AE7215080409040E1F700C000004E
:100630000E94960084E890E00E94B3012FEF81E1D0
:100640009AE7215080409040E1F700C000000E94EE
:1006500096008BE890E00E94B3012FEF81E19AE7CA
:10066000215080409040E1F700C00000B4CF97FBDC
:10067000072E16F4009407D077FD09D00E9451038D
:1006800007FC05D03EF4909581959F4F0895709595
:1006900061957F4F0895EE0FFF1F0590F491E02DB7
:1006A0000994AA1BBB1B51E107C0AA1FBB1FA617B9
:1006B000B70710F0A61BB70B881F991F5A95A9F70B
:1006C00080959095BC01CD010895AEE0B0E0EBE6D9
:1006D000F3E00C9426060D891E8986E08C831A832C
:1006E00009838FEF9FE79E838D83AE01475E5F4F47
:1006F0006F89788DCE0101960E948703EF81F8857E
:10070000E00FF11F10822E96E4E00C944206ABE05D
:10071000B0E0EDE8F3E00C9418066C017B018A016F
:10072000FC0117821682838181FFCCC1CE01019624
:100730003C01F6019381F70193FD859193FF81912F
:100740007F01882309F4BAC1853239F493FD85917C
:1007500093FF81917F01853229F4B60190E00E94D8
:100760007E05E7CF912C212C312CFFE1F315D8F039
:100770008B3279F038F4803279F08332A1F4232D72
:1007800020611DC08D3261F0803369F4232D21601A
:1007900016C0832D8260382EE32DE4603E2E2AC0E1
:1007A000F32DF8601DC037FC2DC020ED280F2A3036
:1007B00040F08E32B9F436FC81C1232D2064322EF4
:1007C00019C036FE06C08AE0989E200D1124922E94
:1007D00011C0EAE02E9E200D1124222EF32DF0628E
:1007E0003F2E08C08C3621F4832D8068382E02C03D
:1007F000883641F4F70193FD859193FF81917F0144
:100800008111B3CF982F9F7D9554933028F40C5FBE
:100810001F4F9FE399830DC0833631F0833771F00A
:10082000833509F059C021C0F801808189830E5FAA
:100830001F4F88248394912C530113C02801F2E0A8
:100840004F0E511CF801A080B18036FE03C0692D07
:1008500070E002C06FEF7FEFC5010E9473054C018D
:100860008201F32DFF773F2E16C0280122E0420EB1
:10087000511CF801A080B18036FE03C0692D70E0E4
:1008800002C06FEF7FEFC5010E9468054C01F32D98
:10089000F0683F2E820133FC1BC0822D90E0881649
:1008A0009906B0F4B60180E290E00E947E052A9499
:1008B000F4CFF50137FC859137FE81915F01B601D8
:1008C00090E00E947E0521102A9421E0821A91086E
:1008D0008114910471F7E8C0843611F0893641F52E
:1008E000F80137FE07C060817181828193810C5FBE
:1008F0001F4F08C060817181072E000C880B990B77
:100900000E5F1F4FF32DFF763F2E97FF09C0909586
:100910008095709561957F4F8F4F9F4FF0683F2E68
:100920002AE030E0A3010E94BA05882E861845C04F
:10093000853731F4232D2F7EB22E2AE030E025C0FA
:10094000932D997FB92E8F36C1F018F4883579F040
:10095000B5C0803719F0883721F0B0C0E92FE061C9
:10096000BE2EB4FE0DC0FB2DF460BF2E09C034FEB8
:100970000AC0292F2660B22E06C028E030E005C04C
:1009800020E130E002C020E132E0F801B7FE07C00C
:1009900060817181828193810C5F1F4F06C06081ED
:1009A000718180E090E00E5F1F4FA3010E94BA05A5
:1009B000882E8618FB2DFF773F2E36FE0DC0232D87
:1009C0002E7FA22E891458F434FE0BC032FC09C0CD
:1009D000832D8E7EA82E05C0B82CA32C03C0B82C66
:1009E00001C0B92CA4FE0FC0FE01E80DF11D8081ED
:1009F000803321F49A2D997EA92E09C0A2FE06C04B
:100A0000B394B39404C08A2D867809F0B394A3FC00
:100A100011C0A0FE06C0B21488F4280C922C9B18BA
:100A20000EC0B21460F4B60180E290E00E947E0530
:100A3000B394F7CFB21418F42B1802C0982C212CC1
:100A4000A4FE10C0B60180E390E00E947E05A2FEE5
:100A500017C0A1FC03C088E790E002C088E590E0E1
:100A6000B6010CC08A2D867859F0A1FE02C08BE237
:100A700001C080E2A7FC8DE2B60190E00E947E05F5
:100A8000891438F4B60180E390E00E947E059A94C0
:100A9000F7CF8A94F301E80DF11D8081B60190E053
:100AA0000E947E058110F5CF222009F442CEB601C6
:100AB00080E290E00E947E052A94F6CFF6018681BE
:100AC000978102C08FEF9FEF2B96E2E10C943406E2
:100AD000FC010590615070400110D8F78095909509
:100AE0008E0F9F1F0895FC0161507040019001100E
:100AF000D8F7809590958E0F9F1F08950F931F93A1
:100B0000CF93DF93FB01238121FD03C08FEF9FEF84
:100B10002CC022FF16C0468157812481358142179F
:100B2000530744F4A081B1819D012F5F3F4F318372
:100B300020838C93268137812F5F3F4F3783268315
:100B400014C08B01EC01FB010084F185E02D0995B7
:100B5000892BE1F6D80116968D919C9117970196F5
:100B600017969C938E931697CE01DF91CF911F918C
:100B70000F910895FA01AA27283051F1203181F10F
:100B8000E8946F936E7F6E5F7F4F8F4F9F4FAF4F95
:100B9000B1E03ED0B4E03CD0670F781F891F9A1FA8
:100BA000A11D680F791F8A1F911DA11D6A0F711D5C
:100BB000811D911DA11D20D009F468943F912AE068
:100BC000269F11243019305D3193DEF6CF01089550
:100BD000462F4770405D4193B3E00FD0C9F7F6CF81
:100BE000462F4F70405D4A3318F0495D31FD405249
:100BF000419302D0A9F7EACFB4E0A69597958795DF
:100C000077956795BA95C9F70097610571050895BD
:100C10009B01AC010A2E0694579547953795279569
:100C2000BA95C9F7620F731F841F951FA01D089501
:100C30002F923F924F925F926F927F928F929F92EC
:100C4000AF92BF92CF92DF92EF92FF920F931F93DA
:100C5000CF93DF93CDB7DEB7CA1BDB0B0FB6F8948B
:100C6000DEBF0FBECDBF09942A88398848885F84CB
:100C70006E847D848C849B84AA84B984C884DF803C
:100C8000EE80FD800C811B81AA81B981CE0FD11D20
:100C90000FB6F894DEBF0FBECDBFED010895F894F6
:020CA000FFCF84
:100CA20025640000302564000037203331320041D2
:100CB20042624363640045464748684900694A6A9C
:100CC2004C4F6F0050535474557500595A5F2D2E76
:020CD2003D00E3
:00000001FF
