:100000000C9473000C9490000C9490000C9490004D
:100010000C9490000C9490000C9490000C94900020
:100020000C9490000C9492000C9490000C9490000E
:100030000C9490000C9490000C9490000C94900000
:100040000C9490000C9490000C9490000C949000F0
:100050000C949000650163016B0121016D01230186
:100060002501270129012B012D012F0131016B01F0
:100070006B016B0169016B016B016B013301350190
:1000800039016B013F014101430145016D014B0104
:100090006B014F016B016B01210153016B016B017E
:1000A000550157015B016B016B016B015F01610140
:1000B0006B016B016B016B0167016B016B01370118
:1000C0003B013D016B016B016B01470149014D0192
:1000D0006B016B016B016B0151016B016B016B01DA
:1000E0006B0159015D0111241FBECFE5D4E0DEBFD5
:1000F000CDBF10E0A0E6B0E0E6EEFBE002C0059068
:100100000D92A239B107D9F720E0A2E9B0E001C011
:100110001D92A93AB207E1F70E9471020C94F10511
:100120000C9400001F920F920FB60F9211242F9380
:100130003F934F935F936F937F938F939F93AF936F
:10014000BF93EF93FF9380919400909195009C0151
:100150002F5F3F4F30939500209394000A9709F04A
:100160003FC0809192009091930001966091A6000B
:1001700070E00E94F2029093930080939200E091CD
:100180009800F09199008091960080FF0AC020911C
:1001900092003091930081E001C0880F2A95EAF720
:1001A0000EC0809192009091930021E030E0A9016F
:1001B00002C0440F551F8A95E2F7CA0180958083DB
:1001C000E091A200F091A300A0919200B091930061
:1001D000A656BF4F8C918083109295001092940088
:1001E000FF91EF91BF91AF919F918F917F916F910F
:1001F0005F914F913F912F910F900FBE0F901F90E5
:1002000018952091A60030E01216130674F4409160
:1002100096004170419580E090E0FC01E656FF4F6A
:100220004083019682179307C4F3089590E0FC0180
:10023000BD97E934F10508F04EC0E65DFF4F0C9420
:1002400006038FE308958BE508958FE4089586E60D
:1002500008958DE608958DE7089587E008958FE766
:1002600008958FE6089587E708958FE708958CE74E
:10027000089589E3089588E508958EE5089589E74E
:10028000089581E708958DE3089586E7089584E74A
:10029000089584E008958FE008958EE0089588E33E
:1002A00008958CE5089583E708958DE6089581E328
:1002B000089588E708958EE308958CE1089586E611
:1002C00008958BE5089580E8089580E4089588E016
:1002D000089588E4089580E0089586E008959F9247
:1002E000AF92BF92CF92DF92EF92FF920F931F9344
:1002F000CF93DF93FC010091A60010E010161106C9
:100300007CF52081222361F1A090970080919600D6
:100310008170982E6F018FEFC81AD80AC0E0D0E024
:10032000B12C05C0F60121916F012223C9F0CE0145
:100330008A0D9B1DB8010E94F2027C01992029F0D0
:10034000822F0E941601809503C0822F0E94160101
:10035000F701E656FF4F80832196C017D10714F3AB
:10036000DF91CF911F910F91FF90EF90DF90CF9091
:10037000BF90AF909F9008950F931F93CF93DF93FB
:10038000CDB7DEB729970FB6F894DEBF0FBECDBF4D
:100390009F938F9380E690E09F938F938E010F5FE2
:1003A0001F4F1F930F930E942003C8010E946F01EB
:1003B0000F900F900F900F900F900F9029960FB6FF
:1003C000F894DEBF0FBECDBFDF91CF911F910F918B
:1003D000089582E083BF89B7816089BF0895EF9255
:1003E000FF920F931F938093A60061706093960015
:1003F0005093A8004093A7003093A3002093A2003D
:100400001093A5000093A400F0929900E092980048
:100410008FEFFA018083E091A200F091A300108297
:10042000E091A400F091A5001082E0919800F09175
:10043000990080838091A6008823C9F080E090E035
:1004400041E050E0E091A400F091A50060819A01A4
:10045000082E02C0220F331F0A94E2F7262B2083B6
:1004600001962091A60030E0821793075CF310926A
:1004700097000E94E9011F910F91FF90EF9008955E
:10048000CF93DF9390919600C92FC17090FF08C061
:10049000E0919700F0E0E656FF4FD081D09506C07E
:1004A000E0919700F0E0E656FF4FD081811106C041
:1004B0008EE20E94160180958D2304C08EE20E9478
:1004C00016018D2BE0919700F0E0CC2319F0D82F86
:1004D000D09501C0D82FE656FF4FD083DF91CF9142
:1004E00008950F2EF5E3EF2EF12CF02D04E310E02C
:1004F00022E330E041E350E061E086E00E94EF015A
:10050000789480E290E00E94BC010E94010189E69B
:1005100090E00E946F0182E08093970081E00E944A
:1005200040022FEF83ED90E3215080409040E1F7AF
:1005300000C0000080E00E9440022FEF83ED90E3B6
:10054000215080409040E1F700C000000E9401016E
:100550008FE690E00E946F012FEF81E19AE7215032
:1005600080409040E1F700C000000E94010186E752
:1005700090E00E946F012FEF81E19AE721508040C7
:100580009040E1F700C000000E9401018DE790E07B
:100590000E946F012FEF81E19AE721508040904047
:1005A000E1F700C000000E94010184E890E00E9491
:1005B0006F012FEF81E19AE7215080409040E1F7F1
:1005C00000C000000E9401018BE890E00E946F01D2
:1005D0002FEF81E19AE7215080409040E1F700C081
:1005E0000000B4CF97FB072E16F4009407D077FDD8
:1005F00009D00E940C0307FC05D03EF4909581952C
:100600009F4F0895709561957F4F0895EE0FFF1FDE
:100610000590F491E02D0994AA1BBB1B51E107C082
:10062000AA1FBB1FA617B70710F0A61BB70B881F82
:10063000991F5A95A9F780959095BC01CD01089511
:10064000AEE0B0E0E6E2F3E00C94C8050D891E8947
:1006500086E08C831A8309838FEF9FE79E838D83C7
:10066000AE01475E5F4F6F89788DCE0101960E9483
:100670004203EF81F885E00FF11F10822E96E4E02F
:100680000C94E405ACE0B0E0E8E4F3E00C94BA05C7
:100690007C016B018A01FC0117821682838181FF34
:1006A000BDC1CE0101964C01F7019381F60193FD86
:1006B000859193FF81916F01882309F4ABC1853245
:1006C00039F493FD859193FF81916F01853229F46F
:1006D000B70190E00E942A05E7CF512C312C20E091
:1006E0002032A0F48B3269F030F4803259F083323A
:1006F00069F420612CC08D3239F0803339F42160E7
:1007000026C02260246023C0286021C027FD27C0A6
:1007100030ED380F3A3078F426FF06C0FAE05F9EDD
:10072000300D1124532E13C08AE0389E300D112451
:10073000332E20620CC08E3221F426FD6BC1206462
:1007400006C08C3611F4206802C0883641F4F601E8
:1007500093FD859193FF81916F018111C1CF982FF6
:100760009F7D9554933028F40C5F1F4FFFE3F9836E
:100770000DC0833631F0833771F0833509F05BC0EB
:1007800022C0F801808189830E5F1F4F4424439467
:10079000512C540115C03801F2E06F0E711CF801A4
:1007A000A080B18026FF03C0652D70E002C06FEF0E
:1007B0007FEFC5012C870E941F052C0183012C852A
:1007C0002F77222E17C03801F2E06F0E711CF8014E
:1007D000A080B18026FF03C0652D70E002C06FEFDE
:1007E0007FEFC5012C870E9414052C012C85206801
:1007F000222E830123FC1BC0832D90E0481659064E
:10080000B0F4B70180E290E00E942A053A94F4CF58
:10081000F50127FC859127FE81915F01B70190E0EA
:100820000E942A0531103A94F1E04F1A5108411400
:10083000510471F7E5C0843611F0893639F5F801B5
:1008400027FF07C060817181828193810C5F1F4FF8
:1008500008C060817181882777FD8095982F0E5F91
:100860001F4F2F76B22E97FF09C0909580957095F7
:1008700061957F4F8F4F9F4F2068B22E2AE030E066
:10088000A4010E945C05A82EA81844C0853729F44D
:100890002F7EB22E2AE030E025C0F22FF97FBF2E46
:1008A0008F36C1F018F4883579F0B4C0803719F06C
:1008B000883721F0AFC02F2F2061B22EB4FE0DC0BB
:1008C0008B2D8460B82E09C024FF0AC09F2F96602C
:1008D000B92E06C028E030E005C020E130E002C0BB
:1008E00020E132E0F801B7FE07C0608171818281AA
:1008F00093810C5F1F4F06C06081718180E090E0A2
:100900000E5F1F4FA4010E945C05A82EA818FB2DA6
:10091000FF77BF2EB6FE0BC02B2D2E7FA51450F4F3
:10092000B4FE0AC0B2FC08C02B2D2E7E05C07A2C66
:100930002B2D03C07A2C01C0752C24FF0DC0FE01A5
:10094000EA0DF11D8081803311F4297E09C022FF58
:1009500006C07394739404C0822F867809F0739450
:1009600023FD13C020FF06C05A2C731418F4530C37
:100970005718732C731468F4B70180E290E02C8749
:100980000E942A0573942C85F5CF731410F4371840
:1009900001C0312C24FF12C0B70180E390E02C8706
:1009A0000E942A052C8522FF17C021FF03C088E57D
:1009B00090E002C088E790E0B7010CC0822F8678F3
:1009C00059F021FD02C080E201C08BE227FD8DE2DB
:1009D000B70190E00E942A05A51438F4B70180E31E
:1009E00090E00E942A055A94F7CFAA94F401EA0DE8
:1009F000F11D8081B70190E00E942A05A110F5CF7A
:100A0000332009F451CEB70180E290E00E942A051C
:100A10003A94F6CFF7018681978102C08FEF9FEF5E
:100A20002C96E2E10C94D605FC01059061507040D3
:100A30000110D8F7809590958E0F9F1F0895FC01A7
:100A40006150704001900110D8F7809590958E0FFD
:100A50009F1F08950F931F93CF93DF93182F092F94
:100A6000EB018B8181FD03C08FEF9FEF20C082FFE0
:100A700010C04E815F812C813D81421753077CF469
:100A8000E881F9819F012F5F3F4F398328831083CD
:100A900006C0E885F985812F0995892B29F72E81D4
:100AA0003F812F5F3F4F3F832E83812F902FDF9118
:100AB000CF911F910F910895FA01AA27283051F183
:100AC000203181F1E8946F936E7F6E5F7F4F8F4F7F
:100AD0009F4FAF4FB1E03ED0B4E03CD0670F781FDE
:100AE000891F9A1FA11D680F791F8A1F911DA11DC3
:100AF0006A0F711D811D911DA11D20D009F46894FC
:100B00003F912AE0269F11243019305D3193DEF6A3
:100B1000CF010895462F4770405D4193B3E00FD059
:100B2000C9F7F6CF462F4F70405D4A3318F0495D44
:100B300031FD4052419302D0A9F7EACFB4E0A69527
:100B40009795879577956795BA95C9F70097610549
:100B5000710508959B01AC010A2E0694579547959F
:100B600037952795BA95C9F7620F731F841F951F94
:100B7000A01D08952F923F924F925F926F927F92A5
:100B80008F929F92AF92BF92CF92DF92EF92FF929D
:100B90000F931F93CF93DF93CDB7DEB7CA1BDB0B49
:100BA0000FB6F894DEBF0FBECDBF09942A883988EE
:100BB00048885F846E847D848C849B84AA84B984F5
:100BC000C884DF80EE80FD800C811B81AA81B98101
:100BD000CE0FD11D0FB6F894DEBF0FBECDBFED0115
:060BE0000895F894FFCF18
:100BE600256400003025640000372033313200418F
:100BF60042624363640045464748684900694A6A59
:100C06004C4F6F0050535474557500595A5F2D2E32
:020C16003D009F
:00000001FF
