:100000000C9434000C9451000C9451000C94510049
:100010000C9451000C9451000C9451000C9451001C
:100020000C9451000C9453000C9451000C9451000A
:100030000C9451000C9451000C9451000C945100FC
:100040000C9451000C9451000C9451000C945100EC
:100050000C945100CF00E300D100D300D500D700AD
:10006000D900DB00DD00DF0011241FBECFE5D4E0A6
:10007000DEBFCDBF10E0A0E6B0E0E0EBF9E002C0EB
:1000800005900D92AA36B107D9F720E0AAE6B0E0B4
:1000900001C01D92A138B207E1F70E948D010C94B6
:1000A000D6040C9400001F920F920FB60F921124E9
:1000B0002F933F934F935F936F937F938F939F9370
:1000C000AF93BF93EF93FF9380916E0090916F0079
:1000D0009C012F5F3F4F30936F0020936E000A9773
:1000E00089F580916C0090916D00019660917E0081
:1000F00070E00E94D70190936D0080936C00E091B6
:100100007000F091710080916C0090916D0021E081
:1001100030E0A90102C0440F551F8A95E2F7CA01D9
:1001200080958083E0917A00F0917B00A0916C0033
:10013000B0916D00AE58BF4F8C91808310926F00CC
:1001400010926E000000FF91EF91BF91AF919F91CF
:100150008F917F916F915F914F913F912F910F9070
:100160000FBE0F901F90189520917E0030E0121660
:10017000130654F480E090E0FC01EE58FF4F10822B
:10018000019682179307C4F3089590E0FC01F0975D
:10019000EA30F105B0F4E65DFF4F0C94EB018FE31C
:1001A00008958BE508958FE4089586E608958DE619
:1001B00008958DE7089587E008958FE708958FE605
:1001C000089580E0089586E00895CF92DF92EF923F
:1001D000FF920F931F93CF93DF93C0907E00D12C9B
:1001E0001C141D04B4F4082F192FC0E0D0E07801CE
:1001F000F80181918F010E94C500FE01EE58FF4F6A
:100200008083F7018081882321F02196CC15DD05BC
:1002100074F3DF91CF911F910F91FF90EF90DF90DA
:10022000CF9008950F931F93CF93DF93CDB7DEB791
:1002300029970FB6F894DEBF0FBECDBF9F938F9363
:1002400080E690E09F938F938E010F5F1F4F1F9367
:100250000F930E940502C8010E94E5000F900F90C5
:100260000F900F900F900F9029960FB6F894DEBF65
:100270000FBECDBFDF91CF911F910F91089582E006
:1002800083BF89B7816089BF08950F931F938093BF
:100290007E007093800060937F0050937B004093BA
:1002A0007A0030937D0020937C00109371000093BE
:1002B00070008FEFFB018083E0917A00F0917B006A
:1002C0001082E0917C00F0917D001082E09170003E
:1002D000F0917100808380917E008823C9F080E0D6
:1002E00090E041E050E0E0917C00F0917D00608181
:1002F0009A01082E02C0220F331F0A94E2F7262B20
:100300002083019620917E0030E0821793075CF3F2
:100310000E943F011F910F91089502E310E021E335
:1003200030E045E350E064E370E086E00E94450180
:10033000789480E290E00E94120184E690E00E94AE
:10034000E5000E94B400C0E0D0E0EE24E394F12C7C
:1003500000E010E080916A0090916B008639910571
:1003600029F0009779F0209719F40EC0CE2DDF2DDB
:100370009C012150310930936B0020936A000E9448
:1003800012010BC0C02FD12F9C012F5F3F4F309324
:100390006B0020936A000E9412018FEF90E722E029
:1003A000815090402040E1F700C00000D3CF97FB80
:1003B000072E16F4009407D077FD09D00E94F101B2
:1003C00007FC05D03EF4909581959F4F0895709558
:1003D00061957F4F0895EE0FFF1F0590F491E02D7A
:1003E0000994AA1BBB1B51E107C0AA1FBB1FA6177C
:1003F000B70710F0A61BB70B881F991F5A95A9F7CE
:1004000080959095BC01CD010895AEE0B0E0EBE0A1
:10041000F2E00C94AD040D891E8986E08C831A836A
:1004200009838FEF9FE79E838D83AE01475E5F4F09
:100430006F89788DCE0101960E942702EF81F885A1
:10044000E00FF11F10822E96E4E00C94C904ACE09A
:10045000B0E0EDE2F2E00C949F047C016B018A01B4
:10046000FC0117821682838181FFBDC1CE010196F6
:100470004C01F7019381F60193FD859193FF8191E2
:100480006F01882309F4ABC1853239F493FD85915E
:1004900093FF81916F01853229F4B70190E00E94AA
:1004A0000F04E7CF512C312C20E02032A0F48B3206
:1004B00069F030F4803259F0833269F420612CC045
:1004C0008D3239F0803339F4216026C022602460F7
:1004D00023C0286021C027FD27C030ED380F3A30F7
:1004E00078F426FF06C0FAE05F9E300D1124532EEB
:1004F00013C08AE0389E300D1124332E20620CC0C8
:100500008E3221F426FD6BC1206406C08C3611F4B6
:10051000206802C0883641F4F60193FD859193FF6F
:1005200081916F018111C1CF982F9F7D9554933098
:1005300028F40C5F1F4FFFE3F9830DC0833631F0C1
:10054000833771F0833509F05BC022C0F8018081E8
:1005500089830E5F1F4F44244394512C540115C0CE
:100560003801F2E06F0E711CF801A080B18026FF07
:1005700003C0652D70E002C06FEF7FEFC5012C87CF
:100580000E9404042C0183012C852F77222E17C092
:100590003801F2E06F0E711CF801A080B18026FFD7
:1005A00003C0652D70E002C06FEF7FEFC5012C879F
:1005B0000E94F9032C012C852068222E830123FC44
:1005C0001BC0832D90E048165906B0F4B70180E2B5
:1005D00090E00E940F043A94F4CFF50127FC859136
:1005E00027FE81915F01B70190E00E940F04311056
:1005F0003A94F1E04F1A51084114510471F7E5C0E3
:10060000843611F0893639F5F80127FF07C060817B
:100610007181828193810C5F1F4F08C0608171815D
:10062000882777FD8095982F0E5F1F4F2F76B22E6B
:1006300097FF09C090958095709561957F4F8F4F7A
:100640009F4F2068B22E2AE030E0A4010E944104AE
:10065000A82EA81844C0853729F42F7EB22E2AE090
:1006600030E025C0F22FF97FBF2E8F36C1F018F48D
:10067000883579F0B4C0803719F0883721F0AFC0E1
:100680002F2F2061B22EB4FE0DC08B2D8460B82EAA
:1006900009C024FF0AC09F2F9660B92E06C028E02B
:1006A00030E005C020E130E002C020E132E0F80196
:1006B000B7FE07C060817181828193810C5F1F4FFB
:1006C00006C06081718180E090E00E5F1F4FA40141
:1006D0000E944104A82EA818FB2DFF77BF2EB6FE5E
:1006E0000BC02B2D2E7FA51450F4B4FE0AC0B2FC13
:1006F00008C02B2D2E7E05C07A2C2B2D03C07A2C02
:1007000001C0752C24FF0DC0FE01EA0DF11D808192
:10071000803311F4297E09C022FF06C073947394BC
:1007200004C0822F867809F0739423FD13C020FF44
:1007300006C05A2C731418F4530C5718732C7314E6
:1007400068F4B70180E290E02C870E940F04739454
:100750002C85F5CF731410F4371801C0312C24FF09
:1007600012C0B70180E390E02C870E940F042C8513
:1007700022FF17C021FF03C088E590E002C088E790
:1007800090E0B7010CC0822F867859F021FD02C09D
:1007900080E201C08BE227FD8DE2B70190E00E946C
:1007A0000F04A51438F4B70180E390E00E940F0411
:1007B0005A94F7CFAA94F401EA0DF11D8081B70194
:1007C00090E00E940F04A110F5CF332009F451CE20
:1007D000B70180E290E00E940F043A94F6CFF7014F
:1007E0008681978102C08FEF9FEF2C96E2E10C94F7
:1007F000BB04FC010590615070400110D8F7809552
:1008000090958E0F9F1F0895FC01615070400190DC
:100810000110D8F7809590958E0F9F1F08950F9324
:100820001F93CF93DF93182F092FEB018B8181FD4D
:1008300003C08FEF9FEF20C082FF10C04E815F8109
:100840002C813D81421753077CF4E881F9819F0197
:100850002F5F3F4F39832883108306C0E885F985D1
:10086000812F0995892B29F72E813F812F5F3F4FDB
:100870003F832E83812F902FDF91CF911F910F9176
:100880000895FA01AA27283051F1203181F1E89426
:100890006F936E7F6E5F7F4F8F4F9F4FAF4FB1E073
:1008A0003ED0B4E03CD0670F781F891F9A1FA11D6E
:1008B000680F791F8A1F911DA11D6A0F711D811D6F
:1008C000911DA11D20D009F468943F912AE0269F34
:1008D00011243019305D3193DEF6CF010895462F93
:1008E0004770405D4193B3E00FD0C9F7F6CF462F74
:1008F0004F70405D4A3318F0495D31FD40524193DD
:1009000002D0A9F7EACFB4E0A69597958795779599
:100910006795BA95C9F700976105710508959B0120
:10092000AC010A2E06945795479537952795BA95A9
:10093000C9F7620F731F841F951FA01D08952F9282
:100940003F924F925F926F927F928F929F92AF925F
:10095000BF92CF92DF92EF92FF920F931F93CF93AC
:10096000DF93CDB7DEB7CA1BDB0B0FB6F894DEBF43
:100970000FBECDBF09942A88398848885F846E8469
:100980007D848C849B84AA84B984C884DF80EE80B3
:10099000FD800C811B81AA81B981CE0FD11D0FB6BC
:1009A000F894DEBF0FBECDBFED010895F894FFCFE0
:0A09B00025640000372033313200C7
:00000001FF
