:1000000012C02CC02BC02AC029C028C027C026C0BF
:1000100025C024C023C022C021C020C01FC01EC0D4
:100020001DC01CC01BC011241FBECFE5D4E0DEBF25
:10003000CDBF10E0A0E6B0E0E2E9F1E002C005903B
:100040000D92A037B107D9F720E0A0E7B0E001C0DA
:100050001D92A637B207E1F787D099C0D1CF909310
:1000600075008093740070937300609372005093D6
:100070007100409370002FE0FC012083E09172003A
:10008000F09173008FEF80830895CF93DF9360E04A
:1000900070E0C1E0D0E0E0917200F09173008081E7
:1000A000DE01062E02C0AA0FBB1F0A94E2F79A2FA8
:1000B000909589238083E0917000F0917100808198
:1000C00084FF0FC0CE0140819C012C5F3F4F50E068
:1000D000022E02C0559547950A94E2F740FD2FC0C5
:1000E00004C024E030E080E090E043E050E0FA011A
:1000F000E81BF90B461B570BEE0FFF1FEE0FFF1F00
:10010000E40FF51FE05AFF4F8081EFE3FCE93197E0
:10011000F1F700C00000E0917000F091710041E043
:1001200050E0BA0102C0660F771F2A95E2F79B01E3
:10013000408150E042235323452BD1F312C0019656
:100140008430910509F0BFCFE0917200F091730007
:100150008081A82BA0836F5F7F4F6430710509F009
:100160009ACFDF91CF91089581E087BB80E188BB72
:1001700040E350E062E370E081E390E070DFC1E0D3
:1001800084DF8733E9F788B38C2788BBF9CFF894ED
:02019000FFCF9F
:100192003132334134353642373839432A302344F9
:00000001FF
