S00D0000636C6F636B2E737265630B
S11300000C9434000C9451000C9451000C94510045
S11300100C94DA010C9451000C9451000C9451008E
S11300200C9451000C9453000C9451000C94510006
S11300300C9451000C9451000C9451000C945100F8
S11300400C9451000C9451000C9451000C945100E8
S11300500C945100E100F500E300E500E700E9003D
S1130060EB00ED00EF00F10011241FBECFE5D4E05A
S1130070DEBFCDBF10E0A0E6B0E0EAEAFBE002C0DC
S113008005900D92AA36B107D9F720E0AAE6B0E0B0
S113009001C01D92AC38B207E1F70E9477020C94BC
S11300A0D3050C9400001F920F920FB60F921124E7
S11300B02F933F934F935F936F937F938F939F936C
S11300C0AF93BF93EF93FF9380917200909173006D
S11300D09C012F5F3F4F30937300209372000A9767
S11300E009F03FC080917000909171000196609179
S11300F0890070E00E94B2029093710080937000B6
S1130100E0917B00F0917C008091790080FF0AC02F
S1130110209170003091710081E001C0880F2A9510
S1130120EAF70EC0809170009091710021E030E0F8
S1130130A90102C0440F551F8A95E2F7CA018095B0
S11301408083E0918500F0918600A0917000B091C9
S11301507100A358BF4F8C9180831092730010924A
S11301607200FF91EF91BF91AF919F918F917F9119
S11301706F915F914F913F912F910F900FBE0F9010
S11301801F9018952091890030E01216130674F41C
S1130190409179004170419580E090E0FC01E35882
S11301A0FF4F4083019682179307C4F3089590E0AC
S11301B0FC01F097EA30F105B0F4E65DFF4F0C94D2
S11301C0E8028FE308958BE508958FE4089586E6A9
S11301D008958DE608958DE7089587E008958FE7E3
S11301E008958FE6089580E0089586E008959F922B
S11301F0AF92BF92CF92DF92EF92FF920F931F9331
S1130200CF93DF93FC010091890010E010161106D2
S11302107CF52081222361F1A0907A0080917900FD
S11302208170982E6F018FEFC81AD80AC0E0D0E011
S1130230B12C05C0F60121916F012223C9F0CE0132
S11302408A0D9B1DB8010E94B2027C01992029F0FD
S1130250822F0E94D700809503C0822F0E94D7006E
S1130260F701E358FF4F80832196C017D10714F399
S1130270DF91CF911F910F91FF90EF90DF90CF907E
S1130280BF90AF909F900895CF93DF93CDB7DEB723
S113029029970FB6F894DEBF0FBECDBF8A30910503
S11302A09CF49F938F9384E690E09F938F93CE0169
S11302B001969F938F930E9402030F900F900F90CB
S11302C00F900F900F9012C09F938F9380E690E051
S11302D09F938F93CE0101969F938F930E94020365
S11302E00F900F900F900F900F900F90CE010196EA
S11302F00E94F70029960FB6F894DEBF0FBECDBF5B
S1130300DF91CF91089582E083BF89B7816089BF6F
S11303100895EF92FF920F931F9380938900617069
S11303206093790050938B0040938A003093860049
S1130330209385001093880000938700F0927C003E
S1130340E0927B008FEFFA018083E0918500F091C9
S113035086001082E0918700F09188001082E0917D
S11303607B00F0917C008083809189008823C9F010
S113037080E090E041E050E0E0918700F091880057
S113038060819A01082E02C0220F331F0A94E2F7FB
S1130390262B208301962091890030E08217930751
S11303A05CF310927A000E9483011F910F91FF90D9
S11303B0EF9008951F920F920FB60F9211248F930E
S11303C09F93AF93BF9385E085BD8091740081FFB7
S11303D040C08091740082FF20C08091750090918C
S11303E07600A0917700B0917800892B8A2B8B2B13
S11303F039F18091750090917600A0917700B091C9
S113040078000197A109B109809375009093760053
S1130410A0937700B093780013C0809175009091F9
S11304207600A0917700B09178000196A11DB11DCE
S11304308093750090937600A0937700B093780032
S11304408091740080FD05C0809174008160809368
S11304507400BF91AF919F918F910F900FBE0F9039
S11304601F9018950F931F930091750010917600BB
S113047020917700309178008091750090917600FA
S1130480A0917700B091780060E17EE00E94B20212
S113049070936B0060936A00C901B80120E13EE0EB
S11304A040E050E00E94C6022CE330E040E050E01F
S11304B00E94C60230936D0020936C0070936F000D
S11304C060936E008AE690E01F910F91089589B7BA
S11304D0806489BF80917400826080937400089561
S11304E082B5886082BD14BC85E085BD089581E035
S11304F087BB8EE188BB0F2EF5E3EF2EF12CF02D98
S113050004E310E022E330E041E350E061E086E000
S11305100E9489010E94700278940E94C2000E9485
S1130520670202E014E08091740080FFFCCF0E9417
S11305303202EC0110927A00888199810E94440170
S113054000937A008A819B810E94440110937A006F
S11305508C819D810E944401809174008E7F8093E0
S11305607400E1CF97FB072E16F4009407D077FDB3
S113057009D00E94EE0207FC05D03EF490958195C7
S11305809F4F0895709561957F4F0895A1E21A2EAB
S1130590AA1BBB1BFD010DC0AA1FBB1FEE1FFF1F23
S11305A0A217B307E407F50720F0A21BB30BE40B73
S11305B0F50B661F771F881F991F1A9469F76095BA
S11305C07095809590959B01AC01BD01CF01089574
S11305D0EE0FFF1F0590F491E02D0994AA1BBB1B9D
S11305E051E107C0AA1FBB1FA617B70710F0A61B2F
S11305F0B70B881F991F5A95A9F780959095BC0150
S1130600CD010895AEE0B0E0E8E0F3E00C94AA0573
S11306100D891E8986E08C831A8309838FEF9FE7F7
S11306209E838D83AE01475E5F4F6F89788DCE01C7
S113063001960E942403EF81F885E00FF11F1082D8
S11306402E96E4E00C94C605ACE0B0E0EAE2F3E0F8
S11306500C949C057C016B018A01FC0117821682B3
S1130660838181FFBDC1CE0101964C01F7019381C5
S1130670F60193FD859193FF81916F01882309F41D
S1130680ABC1853239F493FD859193FF81916F015C
S1130690853229F4B70190E00E940C05E7CF512C74
S11306A0312C20E02032A0F48B3269F030F4803217
S11306B059F0833269F420612CC08D3239F08033D3
S11306C039F4216026C02260246023C0286021C040
S11306D027FD27C030ED380F3A3078F426FF06C0E6
S11306E0FAE05F9E300D1124532E13C08AE0389E29
S11306F0300D1124332E20620CC08E3221F426FDDD
S11307006BC1206406C08C3611F4206802C08836A0
S113071041F4F60193FD859193FF81916F0181115D
S1130720C1CF982F9F7D9554933028F40C5F1F4FB1
S1130730FFE3F9830DC0833631F0833771F08335DD
S113074009F05BC022C0F801808189830E5F1F4FCE
S113075044244394512C540115C03801F2E06F0E27
S1130760711CF801A080B18026FF03C0652D70E0E4
S113077002C06FEF7FEFC5012C870E9401052C0199
S113078083012C852F77222E17C03801F2E06F0EDB
S1130790711CF801A080B18026FF03C0652D70E0B4
S11307A002C06FEF7FEFC5012C870E94F6042C0175
S11307B02C852068222E830123FC1BC0832D90E00E
S11307C048165906B0F4B70180E290E00E940C0587
S11307D03A94F4CFF50127FC859127FE81915F01BE
S11307E0B70190E00E940C0531103A94F1E04F1AE1
S11307F051084114510471F7E5C0843611F089366B
S113080039F5F80127FF07C06081718182819381E6
S11308100C5F1F4F08C060817181882777FD809528
S1130820982F0E5F1F4F2F76B22E97FF09C0909519
S11308308095709561957F4F8F4F9F4F2068B22EA2
S11308402AE030E0A4010E943E05A82EA81844C066
S1130850853729F42F7EB22E2AE030E025C0F22F0E
S1130860F97FBF2E8F36C1F018F4883579F0B4C003
S1130870803719F0883721F0AFC02F2F2061B22EB6
S1130880B4FE0DC08B2D8460B82E09C024FF0AC0AD
S11308909F2F9660B92E06C028E030E005C020E105
S11308A030E002C020E132E0F801B7FE07C0608109
S11308B07181828193810C5F1F4F06C060817181B9
S11308C080E090E00E5F1F4FA4010E943E05A82E19
S11308D0A818FB2DFF77BF2EB6FE0BC02B2D2E7F45
S11308E0A51450F4B4FE0AC0B2FC08C02B2D2E7E11
S11308F005C07A2C2B2D03C07A2C01C0752C24FF43
S11309000DC0FE01EA0DF11D8081803311F4297EB2
S113091009C022FF06C07394739404C0822F8678A2
S113092009F0739423FD13C020FF06C05A2C7314DE
S113093018F4530C5718732C731468F4B70180E23D
S113094090E02C870E940C0573942C85F5CF7314CA
S113095010F4371801C0312C24FF12C0B70180E312
S113096090E02C870E940C052C8522FF17C021FFE4
S113097003C088E590E002C088E790E0B7010CC0AE
S1130980822F867859F021FD02C080E201C08BE2FB
S113099027FD8DE2B70190E00E940C05A51438F400
S11309A0B70180E390E00E940C055A94F7CFAA9413
S11309B0F401EA0DF11D8081B70190E00E940C055D
S11309C0A110F5CF332009F451CEB70180E290E0B5
S11309D00E940C053A94F6CFF7018681978102C0F4
S11309E08FEF9FEF2C96E2E10C94B805FC01059083
S11309F0615070400110D8F7809590958E0F9F1F1D
S1130A000895FC016150704001900110D8F7809561
S1130A1090958E0F9F1F08950F931F93CF93DF938D
S1130A20182F092FEB018B8181FD03C08FEF9FEFFE
S1130A3020C082FF10C04E815F812C813D8142170E
S1130A4053077CF4E881F9819F012F5F3F4F39837D
S1130A502883108306C0E885F985812F0995892BA1
S1130A6029F72E813F812F5F3F4F3F832E83812FB4
S1130A70902FDF91CF911F910F910895FA01AA272A
S1130A80283051F1203181F1E8946F936E7F6E5FCD
S1130A907F4F8F4F9F4FAF4FB1E03ED0B4E03CD07B
S1130AA0670F781F891F9A1FA11D680F791F8A1F5E
S1130AB0911DA11D6A0F711D811D911DA11D20D0C5
S1130AC009F468943F912AE0269F11243019305D7F
S1130AD03193DEF6CF010895462F4770405D419370
S1130AE0B3E00FD0C9F7F6CF462F4F70405D4A33BD
S1130AF018F0495D31FD4052419302D0A9F7EACF85
S1130B00B4E0A6959795879577956795BA95C9F7B3
S1130B1000976105710508959B01AC010A2E0694A6
S1130B205795479537952795BA95C9F7620F731F5F
S1130B30841F951FA01D08952F923F924F925F929C
S1130B406F927F928F929F92AF92BF92CF92DF92D9
S1130B50EF92FF920F931F93CF93DF93CDB7DEB73E
S1130B60CA1BDB0B0FB6F894DEBF0FBECDBF0994D2
S1130B702A88398848885F846E847D848C849B8429
S1130B80AA84B984C884DF80EE80FD800C811B8137
S1130B90AA81B981CE0FD11D0FB6F894DEBF0FBE66
S10D0BA0CDBFED010895F894FFCFD6
S10D0BAA25640000302564000000FB
S9030000FC
