:100000000C9434000C9451000C9451000C94510049
:100010000C9451000C9451000C9451000C9451001C
:100020000C9451000C9453000C9451000C9451000A
:100030000C9451000C9451000C9451000C945100FC
:100040000C9451000C9451000C9451000C945100EC
:100050000C945100E100F500E300E500E700E90041
:10006000EB00ED00EF00F10011241FBECFE5D4E05E
:10007000DEBFCDBF10E0A0E6B0E0E2ECFAE002C0E7
:1000800005900D92A037B107D9F720E0A0E7B0E0C6
:1000900001C01D92A938B207E1F70E9407020C9433
:1000A0005F050C9400001F920F920FB60F9211245F
:1000B0002F933F934F935F936F937F938F939F9370
:1000C000AF93BF93EF93FF9380917400909175006D
:1000D0009C012F5F3F4F30937500209374000A9767
:1000E00009F03FC080917200909173000196609179
:1000F000860070E00E94600290937300809372000B
:10010000E0917800F09179008091760080FF0AC03C
:10011000209172003091730081E001C0880F2A9510
:10012000EAF70EC0809172009091730021E030E0F8
:10013000A90102C0440F551F8A95E2F7CA018095B4
:100140008083E0918200F0918300A0917200B091D1
:100150007300A658BF4F8C91808310927500109247
:100160007400FF91EF91BF91AF919F918F917F911B
:100170006F915F914F913F912F910F900FBE0F9014
:100180001F9018952091860030E01216130674F423
:10019000409176004170419580E090E0FC01E65886
:1001A000FF4F4083019682179307C4F3089590E0B0
:1001B000FC01F097EA30F105B0F4E65DFF4F0C94D6
:1001C00074028FE308958BE508958FE4089586E621
:1001D00008958DE608958DE7089587E008958FE7E7
:1001E00008958FE6089580E0089586E008959F922F
:1001F000AF92BF92CF92DF92EF92FF920F931F9335
:10020000CF93DF93FC010091860010E010161106D9
:100210007CF52081222361F1A09077008091760007
:100220008170982E6F018FEFC81AD80AC0E0D0E015
:10023000B12C05C0F60121916F012223C9F0CE0136
:100240008A0D9B1DB8010E9460027C01992029F053
:10025000822F0E94D700809503C0822F0E94D70072
:10026000F701E658FF4F80832196C017D10714F39A
:10027000DF91CF911F910F91FF90EF90DF90CF9082
:10028000BF90AF909F9008950F931F93CF93DF93EC
:10029000CDB7DEB729970FB6F894DEBF0FBECDBF3E
:1002A0009F938F9380E690E09F938F938E010F5FD3
:1002B0001F4F1F930F930E948E02C8010E94F700E8
:1002C0000F900F900F900F900F900F9029960FB6F0
:1002D000F894DEBF0FBECDBFDF91CF911F910F917C
:1002E0000895CF93DF93CDB7DEB729970FB6F89473
:1002F000DEBF0FBECDBF8A3091059CF49F938F93D4
:1003000084E690E09F938F93CE0101969F938F9305
:100310000E948E020F900F900F900F900F900F90F1
:1003200012C09F938F9380E690E09F938F93CE01AE
:1003300001969F938F930E948E020F900F900F90C3
:100340000F900F900F90CE0101960E94F700299612
:100350000FB6F894DEBF0FBECDBFDF91CF910895E9
:1003600082E083BF89B7816089BF0895EF92FF92D1
:100370000F931F9380938600617060937600509373
:10038000880040938700309383002093820010936D
:10039000850000938400F0927900E09278008FEF5E
:1003A000FA018083E0918200F09183001082E09155
:1003B0008400F09185001082E0917800F09179003E
:1003C0008083809186008823C9F080E090E041E03E
:1003D00050E0E0918400F091850060819A01082E40
:1003E00002C0220F331F0A94E2F7262B20830196C6
:1003F0002091860030E0821793075CF3109277001B
:100400000E94B0011F910F91FF90EF9008950F2E61
:10041000F5E3EF2EF12CF02D04E310E022E330E0C1
:1004200041E350E061E086E00E94B601789480E20A
:1004300090E00E9444010E94C20089E690E00E9480
:10044000F70081E08093770000E010E0CC24C394B3
:10045000D12CE12CF12CC0917000D0917100C639E3
:10046000D10521F1209739F10E94C2000115110533
:1004700051F0CE0101979093710080937000CE01EE
:100480000E94710109C0CE01019690937100809382
:100490007000CE010E9471012FEF80E792E02150A1
:1004A00080409040E1F700C00000D5CF0E94C2001C
:1004B0000C2D1D2DDECF0E94C2000E2D1F2DE3CF6F
:1004C00097FB072E16F4009407D077FD09D00E9401
:1004D0007A0207FC05D03EF4909581959F4F0895D0
:1004E000709561957F4F0895EE0FFF1F0590F49171
:1004F000E02D0994AA1BBB1B51E107C0AA1FBB1F1B
:10050000A617B70710F0A61BB70B881F991F5A959F
:10051000A9F780959095BC01CD010895AEE0B0E0BB
:10052000E4E9F2E00C9436050D891E8986E08C839F
:100530001A8309838FEF9FE79E838D83AE01475E09
:100540005F4F6F89788DCE0101960E94B002EF81D6
:10055000F885E00FF11F10822E96E4E00C9452050E
:10056000ACE0B0E0E6EBF2E00C9428057C016B0116
:100570008A01FC0117821682838181FFBDC1CE01F1
:1005800001964C01F7019381F60193FD859193FF4C
:1005900081916F01882309F4ABC1853239F493FD51
:1005A000859193FF81916F01853229F4B70190E025
:1005B0000E949804E7CF512C312C20E02032A0F487
:1005C0008B3269F030F4803259F0833269F4206163
:1005D0002CC08D3239F0803339F4216026C022607E
:1005E000246023C0286021C027FD27C030ED380FCC
:1005F0003A3078F426FF06C0FAE05F9E300D1124F1
:10060000532E13C08AE0389E300D1124332E206201
:100610000CC08E3221F426FD6BC1206406C08C36DE
:1006200011F4206802C0883641F4F60193FD8591EB
:1006300093FF81916F018111C1CF982F9F7D9554B8
:10064000933028F40C5F1F4FFFE3F9830DC083360E
:1006500031F0833771F0833509F05BC022C0F801B7
:10066000808189830E5F1F4F44244394512C540191
:1006700015C03801F2E06F0E711CF801A080B18046
:1006800026FF03C0652D70E002C06FEF7FEFC5014C
:100690002C870E948D042C0183012C852F77222E1C
:1006A00017C03801F2E06F0E711CF801A080B18014
:1006B00026FF03C0652D70E002C06FEF7FEFC5011C
:1006C0002C870E9482042C012C852068222E830115
:1006D00023FC1BC0832D90E048165906B0F4B701E7
:1006E00080E290E00E9498043A94F4CFF50127FC50
:1006F000859127FE81915F01B70190E00E949804E7
:1007000031103A94F1E04F1A51084114510471F735
:10071000E5C0843611F0893639F5F80127FF07C0A6
:1007200060817181828193810C5F1F4F08C060815D
:100730007181882777FD8095982F0E5F1F4F2F7648
:10074000B22E97FF09C090958095709561957F4F67
:100750008F4F9F4F2068B22E2AE030E0A4010E9404
:10076000CA04A82EA81844C0853729F42F7EB22EBB
:100770002AE030E025C0F22FF97FBF2E8F36C1F07E
:1007800018F4883579F0B4C0803719F0883721F033
:10079000AFC02F2F2061B22EB4FE0DC08B2D846010
:1007A000B82E09C024FF0AC09F2F9660B92E06C03C
:1007B00028E030E005C020E130E002C020E132E076
:1007C000F801B7FE07C060817181828193810C5F5F
:1007D0001F4F06C06081718180E090E00E5F1F4F67
:1007E000A4010E94CA04A82EA818FB2DFF77BF2ED3
:1007F000B6FE0BC02B2D2E7FA51450F4B4FE0AC0FC
:10080000B2FC08C02B2D2E7E05C07A2C2B2D03C0E8
:100810007A2C01C0752C24FF0DC0FE01EA0DF11DDC
:100820008081803311F4297E09C022FF06C07394B1
:10083000739404C0822F867809F0739423FD13C04B
:1008400020FF06C05A2C731418F4530C5718732C3D
:10085000731468F4B70180E290E02C870E9498043A
:1008600073942C85F5CF731410F4371801C0312C14
:1008700024FF12C0B70180E390E02C870E94980407
:100880002C8522FF17C021FF03C088E590E002C03D
:1008900088E790E0B7010CC0822F867859F021FDDF
:1008A00002C080E201C08BE227FD8DE2B70190E03B
:1008B0000E949804A51438F4B70180E390E00E94E8
:1008C00098045A94F7CFAA94F401EA0DF11D80819F
:1008D000B70190E00E949804A110F5CF332009F4ED
:1008E00051CEB70180E290E00E9498043A94F6CF8E
:1008F000F7018681978102C08FEF9FEF2C96E2E18E
:100900000C944405FC010590615070400110D8F72B
:10091000809590958E0F9F1F0895FC016150704047
:1009200001900110D8F7809590958E0F9F1F089524
:100930000F931F93CF93DF93182F092FEB018B8118
:1009400081FD03C08FEF9FEF20C082FF10C04E815A
:100950005F812C813D81421753077CF4E881F98146
:100960009F012F5F3F4F39832883108306C0E8859E
:10097000F985812F0995892B29F72E813F812F5FDA
:100980003F4F3F832E83812F902FDF91CF911F9177
:100990000F910895FA01AA27283051F1203181F1F1
:1009A000E8946F936E7F6E5F7F4F8F4F9F4FAF4F77
:1009B000B1E03ED0B4E03CD0670F781F891F9A1F8A
:1009C000A11D680F791F8A1F911DA11D6A0F711D3E
:1009D000811D911DA11D20D009F468943F912AE04A
:1009E000269F11243019305D3193DEF6CF01089532
:1009F000462F4770405D4193B3E00FD0C9F7F6CF63
:100A0000462F4F70405D4A3318F0495D31FD40522A
:100A1000419302D0A9F7EACFB4E0A69597958795C0
:100A200077956795BA95C9F700976105710508959F
:100A30009B01AC010A2E069457954795379527954B
:100A4000BA95C9F7620F731F841F951FA01D0895E3
:100A50002F923F924F925F926F927F928F929F92CE
:100A6000AF92BF92CF92DF92EF92FF920F931F93BC
:100A7000CF93DF93CDB7DEB7CA1BDB0B0FB6F8946D
:100A8000DEBF0FBECDBF09942A88398848885F84AD
:100A90006E847D848C849B84AA84B984C884DF801E
:100AA000EE80FD800C811B81AA81B981CE0FD11D02
:100AB0000FB6F894DEBF0FBECDBFED010895F894D8
:020AC000FFCF66
:100AC20025640000302564000037203331320000F5
:00000001FF
